:0600000000F06AEF00F0C1
:10000800FFFF5082FACF02F0FBCF03F0E9CF04F0F4
:10001800EACF05F0E1CF06F0E2CF07F0D9CF08F03C
:10002800DACF09F0F3CF0AF0F4CF0BF0F6CF0CF0EB
:10003800F7CF0DF0F8CF0EF0F5CF0FF0C3EC10F0BE
:100048004E6E4EA04EB201D007D0FFFF010E000148
:10005800B46F4E50BBEC0EF0FFFFF2A00CD081A89D
:1000680006D0000ECF6E000ECE6ECD8002D0FFFF00
:10007800CD90FFFFF290FFFF9EA408D0010E000173
:10008800AD27000EAE23AF23B0239E94FFFF0FC011
:10009800F5FF0EC0F8FF0DC0F7FF0CC0F6FF0BC050
:1000A800F4FF0AC0F3FF09C0DAFF08C0D9FF07C090
:1000B800E2FF06C0E1FF05C0EAFF04C0E9FF03C094
:1000C800FBFF02C0FAFF50921100FFFF0AEF11F088
:100600000068424865696768743D202020202020EA
:10061000636D005858580000FFFF000E1F6E20EE5B
:1006200008F01050D9261150DA22DE6ADE6ADE6A3E
:10063000DD6AA4AA0CD020EE08F01050D926115083
:10064000DA22020EDE12000EDE12DE12DE12FFFFD2
:1006500060AE56D162B63CD062CF60F0050E0001AC
:10066000616FFFFF0001D89060330001612FF9D75F
:100670000001605161CF62F00001636B0001D8900E
:10068000623763370001D890623763370001D89032
:1006900062376337000162110001646F000163512A
:1006A0000001656F0001666B000165BF6607000110
:1006B00066510001676F10C0D9FF11C0DAFF64C036
:1006C000DEFF65C0DEFF66C0DEFF67C0DEFFABD0C9
:1006D000FFFF63CF60F00001616B626B636B62C010
:1006E00063F061C062F060C061F00001606B62CFD6
:1006F00064F0030E0001641764C065F00001666BCE
:10070000676B686B66C068F065C067F00001666B78
:10071000656B62CF69F0E00E0001691769C06AF08D
:1007200000016B6B6C6B6D6B120EFFFFD8900001BC
:100730006A376B376C376D37E82EF7D761CF6EF0BD
:1007400000016F6B706B716B150EFFFFD89000018D
:100750006E376F3770377137E82EF7D700016A515F
:1007600000016E110001726F00016B5100016F11E9
:100770000001736F00016C51000170110001746F72
:1007800000016D51000171110001756F000165518B
:10079000000172110001766F0001665100017311B2
:1007A0000001776F00016751000174110001786F3B
:1007B00000016851000175110001796F000160515D
:1007C0000001761100017A6F00016151000177117B
:1007D00000017B6F000162510001781100017C6F04
:1007E000000163510001791100017D6F6450000127
:1007F0007A1100017E6F00017B5100017F6F0001C3
:100800007C510001806F00017D510001816F10C09B
:10081000D9FF11C0DAFF7EC0DEFF7FC0DEFF80C0DF
:10082000DEFF81C0DEFFFFFF65CF60F00001616B7E
:10083000626B636B20EE0CF01050D9261150DA2257
:1008400060C0DEFF61C0DEFF62C0DEFF63C0DEFFAE
:1008500065AC0DD020EE08F01050D9261150DA22E8
:10086000400EDE12000EDE12DE12DE1244D0FFFF5A
:10087000660E156E0F0E166E20EE10F01050D92673
:100880001150DA22DECF17F0DDCF18F0000E146E13
:10089000000E136E11D0FFFF15C0D9FF16C0DAFF8E
:1008A00017C0E1FF18C0E2FFDFCFE7FF174A182AA1
:1008B000154A162A134A142AFFFF20EE0CF0105096
:1008C000D9261150DA2213C064F014C065F0000E6E
:1008D000000165BFFF0E666F676FDE500001645D4B
:1008E000DE5000016559DE5000016659DE500001FE
:1008F0006759D8A0D0D7FFFF60507F0B606E70D1D2
:10090000FFFF2FEE50F00F01DFAE6DD12FEE52F052
:100910000F01DFB63ED052CF60F0050E0001616FCF
:10092000FFFF0001D89060330001612FF9D700016B
:10093000605151CF62F062C063F00001646B00014E
:10094000D890633764370001D8906337643700016B
:10095000D89063376437000163110001656F0001AF
:1009600064510001666F0001676B000166BF670795
:10097000000167510001686F10C0D9FF11C0DAFF94
:1009800065C0DEFF66C0DEFF67C0DEFF68C0DEFF59
:10099000B2D0FFFF53CF60F060C061F00001626B26
:1009A000636B646B63C064F062C063F061C062F04B
:1009B0000001616B52CF65F0030E0001651765C041
:1009C00066F00001676B686B696B67C069F066C0B1
:1009D00068F00001676B666B52CF6AF0E00E0001B1
:1009E0006A176AC06BF000016C6B6D6B6E6B120E58
:1009F000FFFFD89000016B376C376D376E37E82EEC
:100A0000F7D751CF6FF06FC070F00001716B726B50
:100A1000736B150EFFFFD890000170377137723776
:100A20007337E82EF7D700016B51000170110001F8
:100A3000746F00016C51000171110001756F0001AC
:100A40006D51000172110001766F00016E510001BD
:100A500073110001776F00016651000174110001EC
:100A6000786F00016751000175110001796F000175
:100A700068510001761100017A6F0001695100018F
:100A8000771100017B6F00016151000178110001B5
:100A90007C6F000162510001791100017D6F00013E
:100AA000635100017A1100017E6F00016451000161
:100AB0007B1100017F6F54CF80F000018051000155
:100AC0007C110001816F00017D510001826F0001E6
:100AD0007E510001836F00017F510001846F10C0BF
:100AE000D9FF11C0DAFF81C0DEFF82C0DEFF83C004
:100AF000DEFF84C0DEFFFFFF55CF60F060C061F015
:100B00000001626B636B646B20EE0CF01050D92611
:100B10001150DA2261C0DEFF62C0DEFF63C0DEFF7B
:100B200064C0DEFF2FEE55F00F01DFAC0DD020EEDC
:100B300008F01050D9261150DA22400EDE12000EB5
:100B4000DE12DE12DE1244D0FFFF560E1B6E0F0EB9
:100B50001C6E20EE10F01050D9261150DA22DECF94
:100B60001DF0DDCF1EF0000E1A6E000E196E11D0B2
:100B7000FFFF1BC0D9FF1CC0DAFF1DC0E1FF1EC074
:100B8000E2FFDFCFE7FF1D4A1E2A1B4A1C2A194A33
:100B90001A2AFFFF20EE0CF01050D9261150DA224D
:100BA00019C064F01AC065F0000E000165BFFF0EA9
:100BB000666F676FDE500001645DDE5000016559AD
:100BC000DE5000016659DE5000016759D8A0D0D729
:100BD000FFFF50CF60F07F0E0001601760C050FF34
:100BE000FFFF010E1F6EFFFF1F04D8A40BD0000EE5
:100BF0001F6E1250D8B406D0A450FD0BA46EA450A2
:100C0000FE0BA46EFFFF1200FFFFFFFF0DD0FFFFE2
:100C10002E500F0802E12D503008D8A005D0100E3C
:100C20002D26000E2E2205D0FFFF400E2D6E0F0E3A
:100C30002E6EFFFF2DC0D9FF2EC0DAFFDF50080B4C
:100C4000E806D8B4E4D72DC027F02EC028F0010E56
:100C50002D24296E000E2E202A6E020E2D242F6EBA
:100C6000000E2E20306E030E2D241B6E000E2E2043
:100C70001C6E040E2D241D6E000E2E201E6E050E01
:100C80002D242B6E000E2E202C6E060E2D241F6E92
:100C9000000E2E20206E10C0D9FF11C0DAFF030E07
:100CA000DB504BE1020EDB5048E1DE52080EDE5C09
:100CB000D8B043D02FC0D9FF30C0DAFFDF50F70BD8
:100CC0002FC0D9FF30C0DAFFDF6E10C0D9FF11C0CE
:100CD000DAFFDECF13F0DECF14F0DECF15F0DECF7B
:100CE00016F0040E06D0FFFFD890163215321432DB
:100CF0001332FFFFE82EF7D7135029C0D9FF2AC0BF
:100D0000DAFFDF6E10C0D9FF11C0DAFFDF50136EBB
:100D1000050E146EFFFFD8901336142EFBD7E00E8D
:100D200013162FC0D9FF30C0DAFFDF501F0B13108E
:100D30002FC0D9FF30C0DAFF96D0FFFF2FC0D9FFF8
:100D400030C0DAFFDF50F70B08092FC0D9FF30C0E1
:100D5000DAFFDF6E10C0D9FF11C0DAFF1DC0E1FF5E
:100D60001EC0E2FFDFCFE7FF10C0D9FF11C0DAFFDE
:100D7000DECF13F0DECF14F0DECF15F0DECF16F0AD
:100D800014C013F015C014F016C015F0166A1350F5
:100D90001BC0D9FF1CC0DAFFDF6E10C0D9FF11C025
:100DA000DAFFDECF13F0DECF14F0DECF15F0DECFAA
:100DB00016F0110E06D0FFFFD890163215321432FD
:100DC0001332FFFFE82EF7D7030E13162FC0D9FFFB
:100DD00030C0DAFFDF50FC0B13102FC0D9FF30C03A
:100DE000DAFFDF6E10C0D9FF11C0DAFFDECF13F0DB
:100DF000DECF14F0DECF15F0DECF16F0130E06D0E6
:100E0000FFFFD8901632153214321332FFFFE82E4E
:100E1000F7D7E00E13162FC0D9FF30C0DAFFDF502E
:100E20001F0B13102FC0D9FF30C0DAFFDF6E10C0C8
:100E3000D9FF11C0DAFFDECF13F0DECF14F0DECF22
:100E400015F0DECF16F0160E06D0FFFFD890163242
:100E5000153214321332FFFFE82EF7D7135029C092
:100E6000D9FF2AC0DAFFFFFFDF6E040E1218D8A4E4
:100E700060D020EE0CF01050D9261150DA22DF504D
:100E8000136E0F0E13162BC0D9FF2CC0DAFFDF50E4
:100E9000F00B13102BC0D9FF2CC0DAFFDF6E2BC074
:100EA000D9FF2CC0DAFFDF50BF0B2BC0D9FF2CC0FD
:100EB000DAFFDF6E1FC023F020C024F020EE10F018
:100EC0001050D9261150DA22DECF25F0DDCF26F0E2
:100ED000000E226E000E216E11D0FFFF25C0D9FF3B
:100EE00026C0DAFF23C0E1FF24C0E2FFDFCFE7FF27
:100EF000234A242A254A262A214A222AFFFF20EEB5
:100F00000CF01050D9261150DA2221C017F022C05F
:100F100018F0000E18BEFF0E196E1A6EDE50175C28
:100F2000DE501858DE501958DE501A58D8B00ED07E
:100F3000D4D7FFFF2BC0D9FF2CC0DAFFDF50BF0B87
:100F400040092BC0D9FF2CC0DAFFDF6EFFFF27C09E
:100F5000D9FF28C0DAFFDF50F70B080927C0D9FFF7
:100F600028C0DAFFDF6E1200FFFFFFFF196E195075
:100F7000D8A4B3D013C014F0D8901436D890143637
:100F80001238E846E00B1410156E640E151660500A
:100F90009B0B1510606E10C0D9FF11C0DAFF030E55
:100FA000DB503CE1020EDB5039E1DE52080EDE5C24
:100FB000D8B034D020EE04F01050D9261150DA22E7
:100FC000DECF14F0DECF15F0DECF16F0DECF17F057
:100FD000040E06D0FFFFD8901732163215321432A5
:100FE000FFFFE82EF7D714C018FF20EE04F01050D2
:100FF000D9261150DA22DF50146E050E156EFFFF50
:10100000D8901436152EFBD7E00E14160F01195187
:101010001F0B1410166E16C019FF5FD0FFFF20EED5
:1010200004F01050D9261150DA22DECF14F0DECFB2
:1010300015F0DECF16F0DECF17F0160E06D0FFFF4C
:10104000D8901732163215321432FFFFE82EF7D738
:1010500014C018FF20EE04F01050D9261150DA22E7
:10106000DECF14F0DECF15F0DECF16F0DECF17F0B6
:10107000110E06D0FFFFD8901732163215321432F7
:10108000FFFFE82EF7D7030E14160F011951FC0BC2
:101090001410186E18C019FF20EE04F01050D92655
:1010A0001150DA22DECF14F0DECF15F0DECF16F0CD
:1010B000DECF17F015C014F016C015F017C016F0EB
:1010C000176A14C01AFF20EE04F01050D9261150F0
:1010D000DA22DF50146E14C01BFFFFFF1904D8A4DE
:1010E000B4D012C014F0050E156EFFFFD890143660
:1010F000152EFBD7600E14160F0150519F0B1410C4
:10110000166E16C050FF10C0D9FF11C0DAFF030ED3
:10111000DB503CE1020EDB5039E1DE52080EDE5CB2
:10112000D8B034D020EE04F01050D9261150DA2275
:10113000DECF14F0DECF15F0DECF16F0DECF17F0E5
:10114000040E06D0FFFFD890173216321532143233
:10115000FFFFE82EF7D714C01CFF20EE04F010505C
:10116000D9261150DA22DF50146E050E156EFFFFDE
:10117000D8901436152EFBD7E00E14160F011D5112
:101180001F0B1410166E16C01DFF5FD0FFFF20EE60
:1011900004F01050D9261150DA22DECF14F0DECF41
:1011A00015F0DECF16F0DECF17F0160E06D0FFFFDB
:1011B000D8901732163215321432FFFFE82EF7D7C7
:1011C00014C01CFF20EE04F01050D9261150DA2272
:1011D000DECF14F0DECF15F0DECF16F0DECF17F045
:1011E000110E06D0FFFFD890173216321532143286
:1011F000FFFFE82EF7D7030E14160F011D51FC0B4D
:101200001410186E18C01DFF20EE04F01050D926DF
:101210001150DA22DECF14F0DECF15F0DECF16F05B
:10122000DECF17F015C014F016C015F017C016F079
:10123000176A14C01EFF20EE04F01050D92611507A
:10124000DA22DF50146E14C01FFFFFFF1200FFFFF1
:10125000FFFF000E0001966F000E956F000E00015B
:10126000926F000E916F000E0001946F000E936F4D
:10127000000E0001B56F010EB66F000EB76F000EC5
:10128000B86FFF0E0001B96F070EBA6F000EBB6F8B
:10129000000EBC6F930E0001C56F000E0001C66FFB
:1012A000010E0001976F020E986F000E996F000EED
:1012B0009A6F020E0001A36F000EA46F000EA56FBF
:1012C000000EA66F950E0001A76F000E0001A86F1B
:1012D00040EC10F011EC10F032EC11F01DEC11F0BC
:1012E00001EC0FF0030E156E060E166EB1EC0FF04A
:1012F000FFFF92EC0CF033C0B1F034C0B2F0900EAE
:101300000001B15D010E0001B259D8B016D0B1C0D4
:1013100017F0B2C018F0C70E196E000E1A6EEEEC80
:101320000CF0000E156E080EE1EC10F0C70E156EF5
:10133000000E166EB1EC0FF00CD0FFFF000E156E14
:10134000080EE1EC10F0130E156E060E166EB1ECE1
:101350000FF0FFFFB1C095F0B2C096F00001B405E8
:10136000D8A427D0F29EB50E106E000E116E000E9E
:10137000126E0CEC03F0ADC0A9F0AEC0AAF0AFC085
:10138000ABF0B0C0ACF0F28E000E0001B46F000103
:10139000B6050001B5110001B7110001B811D8A4BC
:1013A00008D0010E0001B36F000E0001926F0A0E0B
:1013B000916FFFFF0001B305D8A453D0A9C085F0F9
:1013C000AAC086F0ABC087F0ACC088F00001851FD2
:1013D000861F871F881F852B000E8623872388235F
:1013E0000001AD51000185250001896F0001AE515A
:1013F0000001862100018A6F0001AF5100018721A1
:1014000000018B6F0001B0510001882100018C6F39
:101410000001915100018D6F0001925100018E6F0A
:1014200000018F6B0001906B0001895100018D5DFF
:1014300000018A5100018E5900018B5100018F5922
:1014400000018C5100019059D8B00BD0970E106E4E
:10145000000E116E040E126E05EC06F0000E000177
:10146000B36FFFFFA4AA04D08C848C96A49A40D7B3
:10147000FFFF8C868C943CD7FFFF1A6E000E1F6E08
:10148000000E206E16D0FFFF000E0ED0FFFF040EE0
:101490000BD0FFFF080E08D0FFFF0C0E05D0FFFF9A
:1014A000100E02D0FFFF140EFFFF1F6E0F0E206EF6
:1014B00014D0FFFF1A50000AD8B4E5D7010AD8B4F7
:1014C000E5D7030AD8B4E5D7010AD8B4E5D7060AA8
:1014D000D8B4E5D7030AD8B4E5D7FFFF1FC01BF087
:1014E00020C01CF0010E1F241D6E000E20201E6E59
:1014F000020E1F24166E000E2020176E030E1F24EE
:10150000186E000E2020196E10C0D9FF11C0DAFF2E
:10151000030EDB5041E1020EDB503EE1DE52080ECD
:10152000DE5CD8B039D010C0D9FF11C0DAFFDECFF1
:1015300012F0DECF13F0DECF14F0DECF15F0040E84
:1015400006D0FFFFD8901532143213321232FFFF4B
:10155000E82EF7D712501BC0D9FF1CC0DAFFDF6E90
:1015600010C0D9FF11C0DAFFDF50126E050E136EE6
:10157000FFFFD8901236132EFBD7E00E12161DC0B7
:10158000D9FF1EC0DAFFDF501F0B12101DC0D9FF9C
:101590001EC0DAFFDF6E66D0FFFF10C0D9FF11C09A
:1015A000DAFFDECF12F0DECF13F0DECF14F0DECFA5
:1015B00015F0160E06D0FFFFD890153214321332F4
:1015C0001232FFFFE82EF7D712501BC0D9FF1CC004
:1015D000DAFFDF6E10C0D9FF11C0DAFFDECF12F0E4
:1015E000DECF13F0DECF14F0DECF15F0110E06D0F3
:1015F000FFFFD8901532143213321232FFFFE82E5B
:10160000F7D7030E12161DC0D9FF1EC0DAFFDF5038
:10161000FC0B12101DC0D9FF1EC0DAFFDF6E10C018
:10162000D9FF11C0DAFFDECF12F0DECF13F0DECF2C
:1016300014F0DECF15F013C012F014C013F015C073
:1016400014F0156A125016C0D9FF17C0DAFFDF6E0A
:1016500010C0D9FF11C0DAFF18C0E1FF19C0E2FFC6
:10166000DFCFE7FFFFFF1200FFFFFFFF2CC02EF0D0
:101670002F6A306A2B342E3601E32F802E50000162
:10168000656F00016551D8B444D0170E2E6E2AC084
:101690002FF02BC030F02CC031F02E28326E05D048
:1016A000FFFFD890313230322F32FFFF322EF8D781
:1016B0002F500001606F2B8EFF0E2A16FF0E2B1687
:1016C000000E2C162A500001616F2B500001626F32
:1016D0002C500001636F0001646B8E0E0001655F8A
:1016E000000165AF11D000016551800A8F0FD8A0AD
:1016F00010D0FFFF0001D89064336333623361334D
:101700000001653FF6D71ED0FFFF170E000165658B
:1017100013D0FFFF000E2A6E000E2B6E000E2C6EF3
:10172000000E2D6E27D0FFFF0001D8906137623781
:101730006337643700016507FFFF00016551000151
:10174000D8A4F1D7FFFF000160510001D8B409D03F
:101750000001641F631F621F616D000E622363231B
:101760006423FFFF61C02AF062C02BF063C02CF03D
:1017700064C02DF0FFFF1200FFFFFFFF1DC021F02E
:10178000226A236A1C34213601E322802150286E0C
:101790002850D8B40DD020C021F0226A236A1F340B
:1017A000213601E322802150296E2950D8A408D087
:1017B000FFFF000E1B6E000E1C6E000E1D6E4DD046
:1017C000FFFF000E256E000E266E000E276E2950BC
:1017D000890F285E1DC029F02050291A800E291675
:1017E0001C8EFF0E1B16FF0E1C16000E1D161F8EE4
:1017F000FF0E1E16FF0E1F16000E2016180E246E6A
:10180000FFFFD8902536263627361E501B5C1F500A
:101810001C5820501D58D8A007D01E501B5E1F50CA
:101820001C5A20501D5A2580FFFFD8901B361C36AD
:101830001D36242EE5D725C010F026C011F027C094
:1018400012F028C013F029C014F030EC0CF010C0D6
:101850001BF011C01CF012C01DF0FFFF1200FFFFB3
:10186000FFFF1350D8B405D0105011101210D8A497
:101870000ED0FFFF000E106E000E116E000E126EE5
:101880004ED0FFFF132AD890123211321032FFFFD0
:10189000000E1014156E000E1114166EFE0E1214AA
:1018A000176E155016101710D8B40DD0EAD7FFFFD9
:1018B000132A010E1026000E1122000E1222D890BB
:1018C000123211321032FFFF000E1014156E000E8E
:1018D0001114166EFF0E1214176E155016101710F5
:1018E000D8B407D0E4D7FFFF1306D89010361136CE
:1018F0001236FFFF11BE03D0020E1360F4D7FFFFB4
:1019000013A0119ED8901332135012121450D8A461
:10191000128E10C010F011C011F012C012F0FFFFB3
:101920001200FFFFFFFF000E0001686F000E676FDF
:10193000000E0001666F3AD0FFFF29EC11F09C0EFB
:10194000356EF10EFFFFE82EFDD7352EFBD700D008
:10195000F29ECECF48F0CFCF49F0F28E480E1E6EE9
:101960006B0E1F6E420E206E48C018F049C019F071
:10197000F6EC10F018C01BF019C01CF01AC01DF0D6
:10198000BDEC0BF01BC02AF01CC02BF01DC02CF0CE
:1019900035EC0BF02AC048F02BC049F0485000014C
:1019A00067274950000168230001662BFFFF090EDD
:1019B00000016665C1D767C010F068C011F066C04D
:1019C00012F0136AE1EC0FF010C067F011C068F07C
:1019D00067C033F068C034F01200FFFFFFFF17C08C
:1019E0001BF018C01CF01BC010F01CC011F0000E42
:1019F000136E640E126EE1EC0FF01050300F19C030
:101A0000D9FF1AC0DAFFDF6E1BC010F01CC011F046
:101A1000000E136E640E126E9BEC10F010C01BF0E3
:101A200011C01CF020EE01F01950D9261A50DA220C
:101A30001BC010F01CC011F0000E136E0A0E126EC7
:101A4000E1EC0FF01050300FDF6E20EE02F0195075
:101A5000D9261A50DA221BC010F01CC011F0000E5B
:101A6000136E0A0E126E9BEC10F01050300FDF6EEA
:101A700020EE03F01950D9261A50DA22000EDF6E3C
:101A80001200FFFFFFFF146E040E106E000E116EA9
:101A9000020E2CEC0EF0080E106EFF0E116E020EF0
:101AA0002CEC0EF0F00E106E14C011F0020E2CECA7
:101AB0000EF0040EFFFFE82EFDD7080E106E000E8C
:101AC000116E020E2CEC0EF0040EFFFFE82EFDD777
:101AD000040E106E000E116E020E2CEC0EF0080EAD
:101AE000106EFF0E116E020E2CEC0EF0F00E106E4A
:101AF0001438F00B116E020E2CEC0EF0040EFFFFEA
:101B0000E82EFDD7080E106E000E116E020E2CECA2
:101B10000EF0A00EFFFF00F0E82EFCD71200FFFF32
:101B2000FFFF146E040E106EFF0E116E020E2CECF1
:101B30000EF0080E106EFF0E116E020E2CEC0EF061
:101B4000F00E106E14C011F0020E2CEC0EF0040E0C
:101B5000FFFFE82EFDD7080E106E000E116E020E6C
:101B60002CEC0EF0040EFFFFE82EFDD7040E106ED5
:101B7000FF0E116E020E2CEC0EF0080E106EFF0E12
:101B8000116E020E2CEC0EF0F00E106E1438F00BED
:101B9000116E020E2CEC0EF0040EFFFFE82EFDD7A6
:101BA000080E106E000E116E020E2CEC0EF0A00E40
:101BB000FFFF00F0E82EFCD71200FFFFFFFF106EC2
:101BC00010A004D0A350FE0B0109A36EFFFF10A2CA
:101BD00004D0A350FD0B0209A36EFFFF1050040BAD
:101BE000030AD8A404D0A350FB0B0409A36EFFFF83
:101BF0001050080B040AD8A404D0A350F70B08090E
:101C0000A36EFFFF1050100B050AD8A404D0A350F8
:101C1000EF0B1009A36EFFFF1050200B060AD8A48B
:101C200004D0A350DF0B2009A36EFFFF1050400B20
:101C3000070AD8A404D0A350BF0B4009A36EFFFF2E
:101C40001050800B080AD8A404D0A3507F0B800941
:101C5000A36EFFFF1200FFFFFFFF136E32D0FFFFE6
:101C600010501114126E1050FF0A89141210896E50
:101C700039D0FFFF10501114126E1050FF0A8A1451
:101C800012108A6E2FD0FFFF10501114126E1050D8
:101C9000FF0A8B1412108B6E25D0FFFF1050111409
:101CA000126E1050FF0A8C1412108C6E1BD0FFFFA6
:101CB00010501114126E1050FF0A8D1412108D6EF8
:101CC00011D0FFFF1350000AD8B4C9D7010AD8B405
:101CD000D0D7030AD8B4D7D7010AD8B4DED7070AB9
:101CE000D8B4E5D7FFFF1200FFFFFFFF106E10A072
:101CF00003D0A450FE0BA46EFFFF10A203D0A4508B
:101D0000FD0BA46EFFFF1050040B030AD8A403D0F0
:101D1000A450FB0BA46EFFFF1050080B040AD8A4BC
:101D200003D0A450F70BA46EFFFF1050100B050A50
:101D3000D8A403D0A450EF0BA46EFFFF1050200BCB
:101D4000060AD8A403D0A450DF0BA46EFFFF1050E6
:101D5000400B070AD8A403D0A450BF0BA46EFFFF0A
:101D60001050800B080AD8A403D0A4507F0BA46E97
:101D7000FFFF1200FFFFFFFF016E01A003D0A45080
:101D8000FE0BA46EFFFF01A203D0A450FD0BA46EB6
:101D9000FFFF0150040B030AD8A403D0A450FB0B8F
:101DA000A46EFFFF0150080B040AD8A403D0A4506E
:101DB000F70BA46EFFFF0150100B050AD8A403D047
:101DC000A450EF0BA46EFFFF0150200B060AD8A40D
:101DD00003D0A450DF0BA46EFFFF0150400B070A95
:101DE000D8A403D0A450BF0BA46EFFFF0150800BFA
:101DF000080AD8A403D0A4507F0BA46EFFFF1200E2
:101E0000FFFFFFFFFC0E106E020E7CEC0FF0FC0ECD
:101E1000106E000E116E020E2CEC0EF0040E186EF9
:101E20000C0E176EB70EFFFFE82EFDD7172EFBD74F
:101E3000182EF9D7030E42EC0DF0280E42EC0DF0EF
:101E4000280E42EC0DF00C0E42EC0DF0010E42ECAF
:101E50000DF0040E186E0C0E176EB70EFFFFE82E75
:101E6000FDD7172EFBD7182EF9D7060E42EC0DF032
:101E7000000E156E000EE1EC10F01200FFFFFFFFE8
:101E8000A00E101807E1860E111804E112041310B9
:101E9000D8B428D0480E101809E1E80E111806E150
:101EA00012041310D8A402D0870E1ED0FFFF200EFC
:101EB00010180AE1A10E111807E1070E12181310ED
:101EC000D8A402D0810E10D0FFFF400E10180AE1F6
:101ED000420E111807E10F0E12181310D8A402D0E9
:101EE000800E02D0FFFF890EFFFF706EB80E716E7C
:101EF000050E726E1200FFFFFFFF116E1ED0FFFF76
:101F00001050FF0A9214926E29D0FFFF1050FF0A62
:101F10009314936E23D0FFFF1050FF0A9414946E15
:101F20001DD0FFFF1050FF0A9514956E17D0FFFFCC
:101F30001050FF0A9614966E11D0FFFF1150000A40
:101F4000D8B4DDD7010AD8B4E0D7030AD8B4E3D7B0
:101F5000010AD8B4E6D7070AD8B4E9D7FFFF1200C0
:101F6000FFFFFFFF16D0FFFF15C0F6FF16C0F7FFFB
:101F7000F86A050EF76404D00800FFFFF55005D09D
:101F8000F6CFE9FFF7CFEAFFEF5090EC0DF0154ADE
:101F9000162AFFFF15C0F6FF16C0F7FFF86A050EF8
:101FA000F76404D00800FFFFF55005D0F6CFE9FF35
:101FB000F7CFEAFFEF500009D8B41200FFFFD3D7E4
:101FC000FFFFFFFF000E166E000E156E125013106D
:101FD000D8B420D0010E146E05D0FFFFD890123671
:101FE0001336142AFFFF13AEF8D7FFFFD89015362B
:101FF00016361250105C13501158D8A005D012504C
:10200000105E1350115A1580FFFFD8901332123210
:10201000142EEBD7FFFF15C010F016C011F0120000
:10202000FFFFFFFF40EC11F0040E6EEC10F0480EC5
:10203000106EE80E116E010E126E000E136E3FEC64
:102040000FF0B50E106E000E116E000E126E000E27
:10205000136E000EB5EC07F0B50E106E000E116E8B
:10206000000E3CEC0AF0000E6EEC10F0030E75EC66
:102070000EF0030EDEEC0DF0F28EF28C1200FFFF7C
:10208000FFFF400E106E1F0E116E000E126E000E3E
:10209000136E000EB36E000EB26E10C014F011C0BD
:1020A00015F012C016F013C017F014C0BEFF15C013
:1020B00014F016C015F017C016F0176A14C0BFFF51
:1020C000BD80BD82BD94BD869D84F28EB18EB18CE3
:1020D000CF0EB116B192B1801200FFFFFFFF126E5A
:1020E00012C010F0050E116EFFFFD8901036112EA1
:1020F000FBD7E00E10166F501F0B10106F6EFFFF16
:102100001250106E116A050EFFFFD890103611366E
:10211000E82EFAD7E00E10181110D8B402D0010E34
:1021200002D0FFFF000EFFFF6E140009D8B41200AA
:10213000FFFFE5D7FFFFFFFF12501310D8B41CD0EC
:10214000010E146E05D0FFFFD89012361336142AF4
:10215000FFFF13AEF8D7FFFF1250105C1350115859
:10216000D8A004D01250105E1350115AFFFFD8901F
:1021700013321232142EEFD7FFFF10C010F011C02F
:1021800011F01200FFFFFFFF000E016EA450010BC3
:102190000112A450020B0112A450040B0112A4500E
:1021A000080B0112A450100B0112A450200B0112B5
:1021B000A450400B0112A450800B011201501200D8
:1021C000FFFFFFFF166E1550D8A405D016508009EA
:1021D00042EC0DF008D0FFFF1504D8A404D016502F
:1021E000C00942EC0DF0FFFF1200FFFFFFFF18C017
:1021F00010F019C011F0126A8E0E136E000E146EDC
:1022000030EC0CF010C018F011C019F012C01AF028
:102210001200FFFF00EEA9F0220EEE6AE806FDE1D3
:1022200000EE36F01A0EEE6AE806FDE1509050928C
:10223000000EF86E000128EF09F0FFFF39EC11F0F5
:10224000938895908C90F290F286F28CF28E120028
:10225000FFFFFFFF8C80140EFFFFE82EFDD78C9050
:102260001200FFFFFFFF959695948C948C961200B8
:10227000FFFFFFFFCD8ECD92CD8ACD881200FFFFEC
:10228000FFFF200E736E938693941200FFFFFFFFF3
:020000040020DA
:08000000FFFFFFFFFFFFFFFF00
:020000040030CA
:04000000FF260F0EBA
:0800060081FF0FC00FE00F4065
:00000001FF
